{
  "contractName": "CertToken",
  "abi": [
    {
      "constant": true,
      "inputs": [
        {
          "name": "",
          "type": "address"
        }
      ],
      "name": "owners",
      "outputs": [
        {
          "name": "name",
          "type": "bytes32"
        },
        {
          "name": "surnames",
          "type": "bytes32"
        },
        {
          "name": "nid",
          "type": "bytes32"
        }
      ],
      "payable": false,
      "stateMutability": "view",
      "type": "function"
    },
    {
      "constant": true,
      "inputs": [
        {
          "name": "",
          "type": "address"
        }
      ],
      "name": "entities",
      "outputs": [
        {
          "name": "name",
          "type": "bytes32"
        }
      ],
      "payable": false,
      "stateMutability": "view",
      "type": "function"
    },
    {
      "constant": true,
      "inputs": [
        {
          "name": "",
          "type": "bytes32"
        }
      ],
      "name": "certs",
      "outputs": [
        {
          "name": "owner",
          "type": "address"
        },
        {
          "name": "issuer",
          "type": "address"
        },
        {
          "name": "certName",
          "type": "bytes32"
        }
      ],
      "payable": false,
      "stateMutability": "view",
      "type": "function"
    },
    {
      "constant": true,
      "inputs": [],
      "name": "nounce",
      "outputs": [
        {
          "name": "",
          "type": "uint256"
        }
      ],
      "payable": false,
      "stateMutability": "view",
      "type": "function"
    },
    {
      "constant": true,
      "inputs": [],
      "name": "addr1",
      "outputs": [
        {
          "name": "",
          "type": "address"
        }
      ],
      "payable": false,
      "stateMutability": "view",
      "type": "function"
    },
    {
      "inputs": [],
      "payable": false,
      "stateMutability": "nonpayable",
      "type": "constructor"
    },
    {
      "constant": false,
      "inputs": [
        {
          "name": "newOwner",
          "type": "address"
        },
        {
          "name": "newCertName",
          "type": "bytes32"
        }
      ],
      "name": "setCert",
      "outputs": [
        {
          "name": "",
          "type": "bytes32"
        }
      ],
      "payable": false,
      "stateMutability": "nonpayable",
      "type": "function"
    },
    {
      "constant": true,
      "inputs": [
        {
          "name": "unique",
          "type": "bytes32"
        }
      ],
      "name": "checkCert",
      "outputs": [
        {
          "name": "",
          "type": "bool"
        }
      ],
      "payable": false,
      "stateMutability": "view",
      "type": "function"
    }
  ],
  "bytecode": "0x6060604052341561000f57600080fd5b600060018190555061050b806100266000396000f300606060405260043610610083576000357c0100000000000000000000000000000000000000000000000000000000900463ffffffff168063022914a7146100885780631d8ee48a146100fb5780634063d81214610150578063616d2463146101f9578063b3b0d94214610222578063ba46905214610284578063eabe09ad146102c3575b600080fd5b341561009357600080fd5b6100bf600480803573ffffffffffffffffffffffffffffffffffffffff16906020019091905050610318565b60405180846000191660001916815260200183600019166000191681526020018260001916600019168152602001935050505060405180910390f35b341561010657600080fd5b610132600480803573ffffffffffffffffffffffffffffffffffffffff16906020019091905050610342565b60405180826000191660001916815260200191505060405180910390f35b341561015b57600080fd5b610175600480803560001916906020019091905050610360565b604051808473ffffffffffffffffffffffffffffffffffffffff1673ffffffffffffffffffffffffffffffffffffffff1681526020018373ffffffffffffffffffffffffffffffffffffffff1673ffffffffffffffffffffffffffffffffffffffff1681526020018260001916600019168152602001935050505060405180910390f35b341561020457600080fd5b61020c6103ca565b6040518082815260200191505060405180910390f35b341561022d57600080fd5b610266600480803573ffffffffffffffffffffffffffffffffffffffff16906020019091908035600019169060200190919050506103d0565b60405180826000191660001916815260200191505060405180910390f35b341561028f57600080fd5b6102a9600480803560001916906020019091905050610448565b604051808215151515815260200191505060405180910390f35b34156102ce57600080fd5b6102d66104ba565b604051808273ffffffffffffffffffffffffffffffffffffffff1673ffffffffffffffffffffffffffffffffffffffff16815260200191505060405180910390f35b60036020528060005260406000206000915090508060000154908060010154908060020154905083565b60046020528060005260406000206000915090508060000154905081565b60026020528060005260406000206000915090508060000160009054906101000a900473ffffffffffffffffffffffffffffffffffffffff16908060010160009054906101000a900473ffffffffffffffffffffffffffffffffffffffff16908060020154905083565b60015481565b600080836001600081548092919060010191905055604051808373ffffffffffffffffffffffffffffffffffffffff1673ffffffffffffffffffffffffffffffffffffffff166c0100000000000000000000000002815260140182815260200192505050604051809103902090508091505092915050565b60008060026000846000191660001916815260200190815260200160002060010160009054906101000a900473ffffffffffffffffffffffffffffffffffffffff1673ffffffffffffffffffffffffffffffffffffffff161415156104b057600190506104b5565b600090505b919050565b6000809054906101000a900473ffffffffffffffffffffffffffffffffffffffff16815600a165627a7a72305820cc0723392c124288d8eed0c8c35f9e90503cb2dd1d980a9558287fe20c4b19780029",
  "source": "pragma solidity ^0.4.13;\n\ncontract CertToken {\n    \n    struct Entity {\n        bytes32 name;           // Entity's name\n    }\n\n    struct User {\n        bytes32 name;           // Owner's name\n        bytes32 surnames;       // Owner's surnames\n        bytes32 nid;            // Owner's national identity document\n    }\n    \n    struct Certificate {\n        address owner;          // Public address of the certificate's owner\n        address issuer;         // Public address of the entity who issues the certificate\n        bytes32 certName;       // Name of the certificate issued\n        address[] whiteList;    // List of authorized entities to check certificate\n    }\n\n    address public addr1;\n    uint public nounce;\n\n    mapping(bytes32 => Certificate) public certs;  // This creates an array with all the certificates\n\n    mapping(address => User) public owners;\n    mapping(address => Entity) public entities;\n     \n    /********************************************Events******************************************/\n\n\n\n\n\n    /***************************************Initializations**************************************/\n    /********************************************************************************************\n    Initializes contract with initial supply tokens to the creator of the contract\n    /********************************************************************************************/\n    function CertToken() public {\n        nounce = 0;\n    }\n\n\n\n\n\n    /************************************Getters and Setters*************************************/\n    /********************************************************************************************\n    Set a new certificate to the blockcahin\n\n    newOwner        Address of new certificate's owner\n    newCertName     Name of the certificate\n    /********************************************************************************************/\n    function setCert(address newOwner, bytes32 newCertName) public returns (bytes32) {\n        bytes32 unique = keccak256(newOwner, nounce++);\n\n        //certs[unique].owner = newOwner;\n        //certs[unique].issuer = msg.sender;\n        //certs[unique].certName = newCertName;\n        //certs[unique].whiteList[0] = newOwner;\n        \n        return unique;\n    }\n\n\n\n\n\n    /*****************************************Functions*****************************************/\n    /********************************************************************************************\n    Check whether a certificate exist\n\n    certHash        Address of the certificate is gonna check\n    /********************************************************************************************/\n    function checkCert(bytes32 unique) public view returns (bool) {\n        if (certs[unique].issuer != 0 ) {\n            return true;\n        }\n        return false;\n    }\n\n}",
  "sourcePath": "/home/inaki/Documents/certificates-ethereum/token/contracts/CertToken.sol",
  "compiler": {
    "name": "solc",
    "version": "0.4.19+commit.c4cbbb05.Emscripten.clang"
  },
  "schemaVersion": "2.0.0",
  "updatedAt": "2018-03-27T12:19:28.077Z"
}